:100000000C9432000C9447000C9447000C94470069
:100010000C9447000C9447000C9447000C94470044
:100020000C9447000C9447000C9447000C94470034
:100030000C9447000C9447000C9447000C94470024
:100040000C9447000C9447000C9447000C94470014
:100050000C9447006B0078005D007A007C007F0004
:100060008100840011241FBECFE5D8E0DEBFCDBFE4
:1000700010E0A0E6B0E0EEE1F1E002C005900D92E4
:10008000A036B107D9F70E9449000C948D000C945A
:10009000000080E023E0C2E031E191E0D0E1A9E09E
:1000A00018E0B5E004E0482F50E04830510580F4F6
:1000B000FA01E65DFF4F0C948700BABB0BBB4FEF14
:1000C00059E668E1415050406040E1F700C000004F
:1000D0008F5F883040F32ABBCBBB4FEF59E668E116
:1000E000415050406040E1F700C0000080E0F0CF98
:1000F0002ABB0BC0BABB09C0AABB1BBBE0CFAABBC3
:1001000004C03ABBDBBBDBCF3ABB9BBBD8CFEE0F07
:0E011000FF1F0590F491E02D0994F894FFCFA5
:00000001FF
